:100250004552524F52004672655175656E63792062
:10026000636F756E747200467265513A00485A00A9
:10022D00E4FDFCC3ED9FEC9E5018758DFC758B663F
:10023D00C28FD28E308FFDC28FC28E0DBD00010CCC
:02024D0080E14E
:01024F00228C
:1000CD00120270D2B4758915E4F58CF58AD28C7F45
:1000DD00E87E0312022DC28CAF8CEFFEAD8A7C0040
:1000ED00E42DF518EC3EF517E58CB4FF19E58AB44F
:1000FD00FF147F011202987BFF7A0279507D05E48F
:10010D00FF12020780BF7F011202987BFF7A0279EE
:10011D0056E4FDFF1202077BFF7A0279677D017FAE
:10012D0001120207750C05AB18AA177D067F011287
:10013D00014E7BFF7A02796D7D0C7F0112020780E3
:01014D00842D
:100270007F381202987F0C1202987F011202987F39
:04028000800202985E
:100298008F80C2A5C2A61201E1C2A77F0A7E000212
:0202A80001E76C
:1002AA008F80C2A5D2A61201E1C2A77F0A7E0002F0
:0202BA0001E75A
:06018F008B128A13891493
:10019500E4F515F516AB12AA13A914851682851573
:1001A50083120003FF600D1202AA0516E51670E51D
:0401B500051580E1CB
:0101B9002223
:10028400EF7007ED2480F50E8005ED24C0F50EAF68
:040294000E020298BC
:0601E100D2A77F0A7E0098
:1001E700E4FDFCC3ED9FEC9E5015E4FBFA0BBB004E
:0F01F700010AEB64704A70F50DBD00010C80E445
:0102060022D5
:0502D2007F010202980B
:0801BA008E0E8F0F8C108D11C9
:1001C2007F017E00E4FBEBC39511E5106480F874B7
:0E01D2008098500AAC0EAD0F1200300B80E882
:0101E00022FC
:04014E008A0A8B0B83
:10015200120284850C0DE50DD39400402FE50D2489
:10016200FFFDE434FFFC7F0A7E001201BAAC0AAD47
:100172000BCFCDCFCECCCE1200427C007D0A120036
:0C01820042ED2430FF1202AA150D80CAC5
:01018E00224E
:0A02C8008B19120284AF190202AA7A
:060207008B088A09890A38
:10020D00120284E4F50BAB08AA09A90A850B8275C5
:0F021D008300120003FF60071202AA050B80E79F
:01022C0022AF
:030000000202BC3D
:0C02BC00787FE4F6D8FD7581190200CDB2
:10000300BB010CE58229F582E5833AF583E02250B2
:1000130006E92582F8E622BBFE06E92582F8E222FC
:0D002300E58229F582E5833AF583E4932216
:10003000EF8DF0A4A8F0CF8CF0A428CE8DF0A42EE4
:02004000FE229E
:10004200C2D5EC30E709B2D5E4C39DFDE49CFCEED9
:1000520030E715B2D5E4C39FFFE49EFE120078C3D9
:10006200E49DFDE49CFC800312007830D507C3E4D4
:060072009FFFE49EFE2248
:10007800BC000BBE0029EF8DF084FFADF022E4CC6C
:10008800F875F008EF2FFFEE33FEEC33FCEE9DEC35
:10009800984005FCEE9DFE0FD5F0E9E4CEFD22ED7B
:1000A800F8F5F0EE8420D21CFEADF075F008EF2FC5
:1000B800FFED33FD4007985006D5F0F222C398FDB6
:0500C8000FD5F0EA2253
:00000001FF
